{
  "_format": "hh-sol-artifact-1",
  "contractName": "HoleyBookCounter",
  "sourceName": "contracts/holey-book-counter.sol",
  "abi": [
    {
      "inputs": [],
      "name": "countCyclic",
      "outputs": [
        {
          "internalType": "uint8",
          "name": "",
          "type": "uint8"
        }
      ],
      "stateMutability": "view",
      "type": "function"
    },
    {
      "inputs": [],
      "name": "cyclesCompleted",
      "outputs": [
        {
          "internalType": "uint256",
          "name": "",
          "type": "uint256"
        }
      ],
      "stateMutability": "view",
      "type": "function"
    },
    {
      "inputs": [],
      "name": "incrementCounter",
      "outputs": [],
      "stateMutability": "nonpayable",
      "type": "function"
    }
  ],
  "bytecode": "0x60806040526010600060016101000a81548160ff021916908360ff16021790555034801561002c57600080fd5b506101f58061003c6000396000f3fe608060405234801561001057600080fd5b50600436106100415760003560e01c80634b5929c2146100465780635b34b966146100645780638e5c0f7e1461006e575b600080fd5b61004e61008c565b60405161005b919061013e565b60405180910390f35b61006c610092565b005b610076610114565b6040516100839190610175565b60405180910390f35b60015481565b60008081819054906101000a900460ff168092919060010191906101000a81548160ff021916908360ff1602179055505060008060019054906101000a900460ff1660ff1660008054906101000a900460ff1660ff16816100f6576100f5610190565b5b0660ff1603610112576001600081548092919060010191905055505b565b60008054906101000a900460ff1681565b6000819050919050565b61013881610125565b82525050565b6000602082019050610153600083018461012f565b92915050565b600060ff82169050919050565b61016f81610159565b82525050565b600060208201905061018a6000830184610166565b92915050565b7f4e487b7100000000000000000000000000000000000000000000000000000000600052601260045260246000fdfea26469706673582212206771ebe24a5e509ce8f144a5e8f2c05fcb513e76050edfe2bbca928514fe334a64736f6c63430008110033",
  "linkReferences": {},
  "deployedLinkReferences": {}
}