{
  "_format": "hh-sol-artifact-1",
  "contractName": "HoleyBookCounter",
  "sourceName": "contracts/holey-book-counter.sol",
  "abi": [
    {
      "anonymous": false,
      "inputs": [
        {
          "indexed": false,
          "internalType": "string",
          "name": "",
          "type": "string"
        },
        {
          "indexed": false,
          "internalType": "uint256",
          "name": "",
          "type": "uint256"
        }
      ],
      "name": "OneMoreSpinComplete",
      "type": "event"
    },
    {
      "inputs": [],
      "name": "countCyclic",
      "outputs": [
        {
          "internalType": "uint8",
          "name": "",
          "type": "uint8"
        }
      ],
      "stateMutability": "view",
      "type": "function"
    },
    {
      "inputs": [],
      "name": "cyclesCompleted",
      "outputs": [
        {
          "internalType": "uint256",
          "name": "",
          "type": "uint256"
        }
      ],
      "stateMutability": "view",
      "type": "function"
    },
    {
      "inputs": [],
      "name": "incrementCounter",
      "outputs": [],
      "stateMutability": "nonpayable",
      "type": "function"
    }
  ],
  "bytecode": "0x6080604052607f600060016101000a81548160ff021916908360ff16021790555034801561002c57600080fd5b506102b98061003c6000396000f3fe608060405234801561001057600080fd5b50600436106100415760003560e01c80634b5929c2146100465780635b34b966146100645780638e5c0f7e1461006e575b600080fd5b61004e61008c565b60405161005b9190610177565b60405180910390f35b61006c610092565b005b61007661014d565b60405161008391906101ae565b60405180910390f35b60015481565b60008081819054906101000a900460ff168092919060010191906101000a81548160ff021916908360ff1602179055505060008060019054906101000a900460ff1660ff1660008054906101000a900460ff1660ff16816100f6576100f56101c9565b5b0660ff160361014b576001600081548092919060010191905055507fcb71990e42dcfc9d49e582140ab112bf9280c197d1ddbee2fd44d5c30c0663336001546040516101429190610255565b60405180910390a15b565b60008054906101000a900460ff1681565b6000819050919050565b6101718161015e565b82525050565b600060208201905061018c6000830184610168565b92915050565b600060ff82169050919050565b6101a881610192565b82525050565b60006020820190506101c3600083018461019f565b92915050565b7f4e487b7100000000000000000000000000000000000000000000000000000000600052601260045260246000fd5b600082825260208201905092915050565b7f4c696768742061206c616d702100000000000000000000000000000000000000600082015250565b600061023f600d836101f8565b915061024a82610209565b602082019050919050565b6000604082019050818103600083015261026e81610232565b905061027d6020830184610168565b9291505056fea26469706673582212208f376d969dbe227dbdaee0ef711e21dbbbd3cebad2dc0dd7af56f5e8ff4ea4ed64736f6c63430008110033",
  "linkReferences": {},
  "deployedLinkReferences": {}
}